:020000040800F2
:10000000C0130020C9810008D1810008D3810008F5
:10001000D5810008D7810008D981000800000000C0
:10002000000000000000000000000000DB8100086C
:10003000DD81000800000000DF810008C50900081C
:10004000E3810008E3810008E3810008530C000805
:10005000E3810008E3810008510E0008630E0008E8
:10006000750E0008870E0008990E0008E38100084D
:10007000E3810008E3810008E3810008E3810008D0
:10008000E3810008E3810008E3810008E3810008C0
:10009000E3810008E3810008E3810008CF0E000837
:1000A000E3810008E3810008E3810008E3810008A0
:1000B000CF060008E3810008E3810008E38100081F
:1000C000E3810008E3810008E3810008E381000880
:1000D000E381000837130008411300084B130008A0
:1000E000E3810008E3810008E3810008DFF80CD019
:1000F00008F020F900480047DF020008C013002084
:1001000010B5FEA008F028F910BD70B504460D46E4
:100110002570012060700020A070204601F02AF9AF
:1001200070BD70B504460D4625700C206070AFF2AE
:100130002F00E060204600F021FE204600F044FE43
:10014000A070A078E070002020711E2D08DAEC4825
:1001500000EB0510C068A0602178A068FFF7D5FF0C
:1001600070BD10B5002400BF78E0E54901EB041133
:1001700049680988E24A02EB0412128901EA020086
:1001800072B630B10121DE4A02EB04121268D1705E
:1001900005E00021DA4A02EB04121268D170D84956
:1001A00001EB04110968897801294AD1D44901EB8E
:1001B00004110968C978002943D1D14901EB041120
:1001C00009680979A1BB1E2C17DACE49097879BBD9
:1001D0000121CB4A02EB041212681171CA49097855
:1001E000491CC94A1170C74949781278914228DCE4
:1001F000C4494978C44A117023E01E2C04D01F2C36
:100200000FD0202C1CD114E0BE494978BE4A127888
:10021000914205DC0121BA4A02EB04121268117105
:100220000EE00121B64A02EB04121268117107E0D8
:1002300007E00121B24A02EB04121268117100BFFB
:1002400000BFAF4901EB04110968C978AC4A02EB61
:1002500004121268917062B6601CC4B2212C84DB57
:10026000A9480178042001F0C5FA10BD10B501219C
:100270004FF0C05003F01CFA012002F02CFE01F0F8
:100280008BFB10BDF8B505460C46164601200090C4
:1002900001F05FFD352002F0ABF872B6012000904E
:1002A00003E0284601F09AFD00909DF80000012827
:1002B000F7D004200090002707E02188284601F0AD
:1002C000A9FE0090A41CAD1C7F1CB74203DA9DF868
:1002D00000000428F1D062B601F047FDF8BD08B572
:1002E00000218A48FFF71DFF01218948FFF719FF08
:1002F00002218848FFF715FF03218748FFF711FF08
:1003000004218648FFF70DFF05218548FFF709FF07
:1003100006218448FFF705FF07218348FFF701FF07
:1003200008218248FFF7FDFE09218148FFF7F9FE09
:100330000A218048FFF7F5FE0B217F48FFF7F1FE09
:100340000C217E48FFF7EDFE0D217D48FFF7E9FE09
:100350000E217C48FFF7E5FE0F217B48FFF7E1FE09
:1003600010217A48FFF7DDFE11217948FFF7D9FE09
:1003700012217848FFF7D5FE13217748FFF7D1FE09
:1003800014217648FFF7CDFE15217548FFF7C9FE09
:1003900016217448FFF7C5FE17217348FFF7C1FE09
:1003A00018217248FFF7BDFE19217148FFF7B9FE09
:1003B0001A217048FFF7B5FE1B216F48FFF7B1FE09
:1003C0001C216E48FFF7ADFE1D216D48FFF7A9FE09
:1003D0001E216C48FFF7A5FE1F216B48FFF7A1FE09
:1003E00020216A48FFF79DFE1F216948FFF78DFE17
:1003F000FFF73CFF00F0BBFA00F0E3FD72B6654882
:100400000088414908706348801C00883D49487055
:10041000084640781E2801DB1E2048703948407885
:1004200039490978884203DC3648407836490870F3
:100430003448007820B93448007800F0D6FD03E055
:100440003049487800F0D1FD62B600F069FC3DE12A
:10045000FFF787FE4FF47A714F48006800F06DFA9D
:1004600018B34C480588801C068811E0264800789F
:10047000ADF8000023484078ADF80200022269463A
:100480004448FFF7FFFE43480588801C068800BFEC
:100490001D4800788542E9D11A484078B042E5D13C
:1004A00000F03EFA3C49086000BF16484078164903
:1004B000097888420DDC42F210713848006800F07B
:1004C0003CFA30B1324801F004F800F029FA33491F
:1004D0000860002400BFF5E01E2C68DA09480078A7
:1004E000002863D1064800EB041000680079012859
:1004F000F7D1034901EB0411C86851E0610D0A000E
:10050000A8830008740000206E000020E80000208E
:10051000F800002008010020180100202801002018
:100520003801002048010020580100206801002007
:10053000780100208801002098010020A8010020F7
:10054000B8010020C8010020D8010020E8010020E7
:10055000F8010020080200201802002028020020D4
:1005600038020020480200205802002068020020C3
:10057000780200208802002098020020A8020020B3
:10058000B8020020C8020020D8020020E8020020A3
:1005900063000020000401087C0000207800002097
:1005A00000F080FF5748007800F01FFD88E01E2C07
:1005B00004D01F2C33D0202C30D15FE0524800EB08
:1005C000041000680079012828D100204E4901EB71
:1005D0000411096808714B4908700846007800F05A
:1005E00004FD002514E0484800EB05100068007980
:1005F00001280BD1444901EB0511C86800F03BFF0D
:100600000020414901EB051109680871681CC5B259
:100610001E2DE8DB3D4800F02EFF00BF4FE03A48BA
:1006200000EB041000680079012826D1002036492B
:1006300001EB0411096808713548007801280ED1D2
:10064000002033490870582000F0CFFC4FF4FA60C6
:1006500000F0AFF92B48007800F0C7FC0DE0012056
:100660002B490870582000F0C0FC4FF4FA6000F0ED
:10067000A0F92749487800F0B8FC20E0224800EBB8
:10068000041000680079012818D100201E4901EBF0
:100690000411096808711E48007801280ED11C4811
:1006A0004078401C1A494870084640781E2801DDF1
:1006B000002048701649487800F097FC00BF00BF42
:1006C000601CC4B2212CFFF607AF00BFC0E610B516
:1006D0000121880706F0DFFC80B10E4800680E4952
:1006E00008800E48006848800D48006888800D48E2
:1006F0008068C8800121880706F084FC10BD00BF17
:10070000FEE700006E000020A883000863000020C0
:1007100074000020080C0140660000200808014019
:10072000081801400010014010B504466A490969E3
:100730000C70694800F04AFD204610BD002070474B
:100740002DE9F04107460C461646002505E06248B3
:1007500000F05AFD04F8010B6D1CB542F7DB28468A
:10076000BDE8F0812DE9F04107460C46164600250C
:1007700008E014F8010B584909690870564800F060
:1007800025FD6D1CB542F4DB2846BDE8F081002054
:1007900052490870524908705249087070474F48D2
:1007A000007870475048704710B504464C480178AF
:1007B0000078401C4A4A10704B484454494800781D
:1007C00030B101281CD0022826D003284DD12EE0BC
:1007D00043480078052812D14048007878B90020B5
:1007E00041493F4A1278885440A13F4807F04EFDE6
:1007F00018B901203B49087001E0FFF7C8FF34E059
:1008000037480078062806D13748407939490870BA
:1008100002203449087028E036480078801D3049AD
:100820000978884202D103202E4908701DE0314822
:10083000007809302A490978884215D100212D48CD
:1008400000780930284A11542A490978891D8818E6
:1008500029A107F01BFD38B90120204908700020AC
:100860001F4908701F49087000BF00BF2148007869
:1008700009301B490978884201DAFFF788FF012017
:100880001E49087010BD10B5134800F0F3FB124864
:1008900000F0C6FC10BD70B504460D460A2C02D10E
:1008A0000D20FFF741FF2046FFF73EFF70BD70B5FA
:1008B0000546FFF743FF0446FFF736FF70BD0146CC
:1008C0004FF0FF30704710B504462046FFF72CFF6D
:1008D00010BD00BFFEE70000880000208600002059
:1008E0008200002084000020F8020020535441526E
:1008F0005400000083000020454E44008100002089
:1009000010B5002807DA0A07140E354A00F00F0365
:100910001B1FD45403E00A07130E324A135410BDB0
:1009200031490868704702468A4204D92F4B9B1A06
:100930000B44581C00E0881A704770B505460C46F9
:10094000294801682846FFF7EEFFA04201D30120A5
:1009500070BD0020FCE770B504462348056800BF61
:1009600021462846FFF7E9FF0028F9D070BD10B5F1
:100970001F48006842F21071B0FBF1F4B4F1807FBF
:1009800000D311E024F07F40401E4FF0E021486189
:100990000F214FF0FF30FFF7B3FF00204FF0E021B1
:1009A00088610720086100BF0121881EFFF7A8FFAA
:1009B00010BD70B5044604EB840045002846FFF7DF
:1009C000CAFF70BD08480068401C07490860084617
:1009D00000680649884202D9002003490860704730
:1009E00018ED00E000E400E0A8000020C0270900A6
:1009F000D400002038B5044602F08BFF0090684612
:100A000007F052FC0546287AC049087028794870DA
:100A100028788870A88A00F26C708880287C401C36
:100A20008871287BC8710846007820700846407895
:100A3000607008468078A070084680880012E070D8
:100A40000846007920710846807960710846C079AF
:100A5000A07138BDAE4800E0401EAE49098801F0E3
:100A6000200109B90028F7D17047F8B5044602F013
:100A700050FF0090684607F017FC05462078A860F4
:100A800060786860A07828602079E17840EA0120E9
:100A9000A0F26C7068616079401E2861A079E860FE
:100AA000E079A861207AE861607A2862284607F038
:100AB0009DFB064602F036FFFFF7CCFF08B9002089
:100AC000F8BD20789149087060784870A0788870E7
:100AD0000120F5E78E488F4909884FF6F7721140DB
:100AE0008C4A118000E0401E8A49098801F0080103
:100AF00009B90028F7D1704770B5054601214FF0BC
:100B0000C05002F0D5FD012002F0E5F900F014FE1E
:100B10007F4C012002F094FC00E0641E412002F0B2
:100B2000FBFA08B9002CF8D1002C38D04FF48070B3
:100B300002F0D8FC012002F0EFFCFFF7CBFF08B970
:100B4000002070BDFFF786FF08B90020F9E70121FA
:100B5000084602F0A9FEFFF77DFF08B90020F0E784
:100B600047F6FF7002F0EBFEFFF774FF08B90020B4
:100B7000E7E7042000F0A5FE45F65A21884202D09E
:100B8000284602F0CFFEFFF765FF08B90020D8E73E
:100B900045F65A21042000F02DFE0120D1E7002067
:100BA000CFE710B58CB003208DF82C0004208DF811
:100BB0002D0000208DF82E0001208DF82F000BA8AD
:100BC00000F0E9FC01214FF0C05002F071FD01205E
:100BD00002F081F900F0E0FE042000F072FE45F61C
:100BE0005A21884215D17B2002F096FA10B97A205A
:100BF00002F092FAFFF76EFF58B10121084602F0A9
:100C000053FEFFF727FF20B102F002FE01200CB0D7
:100C100010BD0B2002900F200190002000901620A4
:100C200003900720049073200590062006904FF44F
:100C3000AD70079000200890684607F0D7FA044688
:100C4000FFF75AFF08B90020E1E702F0E1FD0120BB
:100C5000DDE738B5012002F0ECFE28B302F059FEC2
:100C60000090684607F020FB0446207A2749087068
:100C70002079487020788870A08A00F26C70888093
:100C8000207C401C8871207BC8710846007840B9E0
:100C90000846407828B90846807810B901201E49D6
:100CA0000870012002F0E3FE38BD3EB504466846F8
:100CB000FFF7A0FE9DF8000020709DF80100607015
:100CC0009DF80200A0709DF80300E0709DF80400FC
:100CD00020719DF8050060719DF80600A0713EBD71
:100CE0003EB5044620788DF8000060788DF801004C
:100CF000A0788DF802006846FFF7B7FE18B1012012
:100D0000064908703EBD0020FCE700005C0300209F
:100D100040420F0004280040AD000020AC0000203D
:100D20001FB50121084602F0C3FC1C208DF80C0001
:100D300000208DF80D0001208DF80E008DF80F00B9
:100D400003A800F028FC6320ADF8040041F61F4022
:100D5000ADF800000020ADF80600ADF802006946CD
:100D60004FF0804002F0BCFF01221146900704F0D2
:100D700091F80121880704F008F81FBD10B504465A
:100D800021785E4AE06842F82100217801EB810178
:100D90005B4A02EB81014868012102F060FC207887
:100DA00000EB8000564901EB80000089554908801E
:100DB0004820C870217801EB8101514A52F8210086
:100DC000504901F0BFFB10BD10B50146087800EB9B
:100DD00080004B4B53F8200080680B7803EB8303B3
:100DE000474C04EB83031B7A1840C2B20AB10120BE
:100DF00010BD0020FCE710B50121042002F02FFCFB
:100E00001020404908804820C8703F4801F09AFBF4
:100E10000121084602F023FC0421002001F0D6FF46
:100E200010203A490860002008710C204871012008
:100E30008871084600F0F0FD0A203549087002204C
:100E4000487088700120C870084600F0A4FB10BDEF
:100E500010B5012000F0C6FE10B1012000F00EFF19
:100E600010BD10B5022000F0BDFE10B1022000F050
:100E700005FF10BD10B5042000F0B4FE10B1042031
:100E800000F0FCFE10BD10B5082000F0ABFE10B164
:100E9000082000F0F3FE10BD10B5102000F0A2FEF7
:100EA00010B1102000F0EAFE10BD10B5202000F0B7
:100EB00099FE10B1202000F0E1FE10BD10B54020D9
:100EC00000F090FE10B1402000F0D8FE10BD10B52B
:100ED000802000F087FE28B10849086880478020FC
:100EE00000F0CCFE10BD10B54FF4807000F07AFE1B
:100EF00018B14FF4807000F0C1FE10BD68030020EF
:100F0000B8850008B800002000080140B0000020AB
:100F1000BC00002008B5009002E00099491E009135
:100F200000990029F9D108BD2DE9F04105460E468A
:100F30004D48475D012E19D1002414E04FF4007193
:100F40004A4801F0D4FC3220FFF7E4FF0221474871
:100F500001F0CDFC3220FFF7DDFF0221434801F014
:100F6000F1FC601CC4B2082CE8DB28E0092D24DC6D
:100F700000241FE007FA04F000F0800028B14FF4CD
:100F800000713A4801F0DEFC04E04FF4007137488C
:100F900001F0ADFC3220FFF7BDFF0221334801F024
:100FA000A6FC3220FFF7B6FF0221304801F0CAFC50
:100FB000601CC4B2082CDDDB01E0BDE8F08100BF9D
:100FC000FBE708B50121082002F049FB40F202309E
:100FD000ADF8000003208DF8020010208DF803000A
:100FE0006946224801F0AEFA08BD70B50446632C8C
:100FF00002DD4FF0FF3070BD0A2094FBF0F100FBE2
:101000001140C6B20A2094FBF0F0C5B20021304670
:10101000FFF78AFF25B901210020FFF785FF03E0D4
:1010200000212846FFF780FF4FF480710F4801F040
:101030005EFC6420FFF76EFF4FF480710B4801F0F7
:1010400081FC0120D7E7FFF7BCFF0BE0002407E09D
:101050002046FFF7CAFF0648FFF75CFF601CC4B2DA
:10106000642CF5DBF2E700004C880008000C01401E
:101070008096980030B587B004460121084602F0FA
:10108000EEFA207850B9217801EBC101B64A02EBA3
:1010900081014868012102F0E2FA09E0217801EBC0
:1010A000C101B14A02EB81014868012102F000FB55
:1010B000217801EBC101AC4A02EB8101C868012132
:1010C00002F0CDFA217801EBC101A74A02EB8101C0
:1010D0008869012102F0C3FA207800EBC000A24920
:1010E00001EB8000807D8DF80B00207800EBC000C4
:1010F00001EB8000808AADF8080003208DF80A001B
:10110000217801EBC101984A02EB8101086902A92B
:1011100001F018FA207800EBC000934901EB800041
:1011200090F822008DF80B00207800EBC00001EB56
:101130008000008CADF80800217801EBC1018A4ADB
:1011400002EB8101086902A901F0FCF960680390D3
:101150000020ADF81000ADF81200ADF81400ADF8A5
:1011600018000C20ADF81600217801EBC1017E4A71
:1011700052F8210003A906F0B6F80020ADF80000EF
:10118000ADF802004FF40070ADF804000020ADF897
:101190000600684606F0E5F9217801EBC101724AC4
:1011A00052F82100012106F0E2F90025284607B097
:1011B00030BD70B50446217801EBC1016A4A52F88E
:1011C000210006F039F80025284670BD70B50446A8
:1011D000664E00BF761E56B1207800EBC000624913
:1011E00051F82000008800F040000028F2D0226969
:1011F0001178227802EBC2025B4B53F8220006F012
:10120000A0FB0025284670BD01460A7802EBC20209
:10121000554B53F8222092880B691A7000207047B2
:1012200038B504462178524AE06842F821004FF46C
:10123000E06000F095F9207800EBC0004A4951F8D1
:101240002000808940F02000217801EBC101464A4E
:1012500052F821108881207800EBC000114601EB84
:101260008000007A8DF80000207A8DF802000120BD
:101270008DF80300684600F08EF9217801EBC1017A
:10128000394A52F82100012240F2255106F09CF91A
:101290000025284638BD38B50446207800EBC0004C
:1012A000314951F82000808920F02000217801EB9D
:1012B000C1012D4A52F821108881207800EBC0002E
:1012C000114601EB8000007A8DF8000000208DF8B7
:1012D0000300684600F05FF90025284638BD70B568
:1012E0000446FF2504EBC4011F4A52F8210040F2D6
:1012F000255106F094FDA0B104EBC4001A4951F841
:1013000020008088C5B21A4850F824102846884723
:1013100004EBC401144A52F8210040F2255106F0B2
:101320000AFE04EBC401104A52F8210040F2277172
:1013300006F075FD70BD10B50020FFF7D0FF10BDA1
:1013400010B50120FFF7CBFF10BD10B50220FFF74D
:10135000C6FF10BD10B50320FFF7C1FF10BD10B5CB
:101360000420FFF7BCFF10BD588800088096980045
:101370007C03002038B504466078012844D12178E8
:1013800001EB4101754A52F82100012102F067F991
:10139000207800EB4000714901EB80000089ADF836
:1013A000000003208DF8020010208DF80300217842
:1013B00001EB4101694A02EB81014868694601F08D
:1013C000C1F8A07801280FD1227802EB4202634BCA
:1013D00003EB82021189227802EB420203EB8202C4
:1013E000506801F084FA43E0227802EB42025B4B42
:1013F00003EB82021189227802EB420203EB8202A4
:10140000506801F09FFA33E0217801EB4101534A23
:1014100052F82100012102F022F9207800EB40006F
:101420004E4901EB80000089ADF8000048208DF89E
:101430000300217801EB4101484A02EB8101486831
:10144000694601F07FF8227802EB4202434B03EB3E
:1014500082021189227802EB420203EB8202506879
:1014600001F035F910B10120A07001E00020A0705A
:101470000025284638BD70B504460325227802EBC6
:101480004202364B03EB82021189227802EB4202C0
:1014900003EB8202506801F055FA0020A07000258D
:1014A000284670BD70B504460325227802EB42023F
:1014B0002A4B03EB82021189227802EB420203EBF2
:1014C0008202506801F013FA0120A070002528461E
:1014D00070BD70B504460325A07888B9227802EB68
:1014E00042021E4B03EB82021189227802EB420278
:1014F00003EB8202506801F0FAF90120A07010E0BD
:10150000227802EB4202154B03EB8202118922780A
:1015100002EB420203EB8202506801F013FA002052
:10152000A0700025284670BD70B5044600252278BD
:1015300002EB4202094B03EB82021189227802EB93
:10154000420203EB8202506801F0C1F808B10120A9
:1015500000E000200546A570284670BDC48800083C
:1015600010B50446B4F5E06F0BD0B4F5C06F08D0E9
:10157000B4F5A06F05D0B4F5806F02D0B4F5407F0C
:1015800000D103E063215DA0FFF7B9F86448204370
:101590006449086010BD2DE9F0410446002500278C
:1015A0000F26E07810B1E078012800D103E0752122
:1015B00052A0FFF7A4F86078102800DA03E0762143
:1015C0004EA0FFF79CF8A078102800DA03E07721FE
:1015D0004AA0FFF794F8E07800B35248006800F49E
:1015E000E060C0F5E060050AC5F10407EE406078F0
:1015F00000FA07F5A078304005432D014A482278CB
:101600008554207800F01F0101208840217849117D
:10161000890001F1E021C1F8000109E0207800F023
:101620001F010120884041492278521141F82200CF
:10163000BDE8F08170B504460D46B4F1005F02D0FC
:10164000B4F1006F00D103E09F212CA0FFF757F801
:101650003748854200D203E0A02128A0FFF74FF8C9
:10166000344905EA010020432E49091F086070BD76
:1016700070B504460D46102C03D0042C01D0022C6A
:1016800000D103E0B2211DA0FFF739F80DB1012D03
:1016900000D103E0B32119A0FFF731F83DB1214893
:1016A000001D006820431F49091D086006E01D4811
:1016B000001D0068A0431B49091D086070BD10B5DE
:1016C0000446042C01D0601D00B903E0CA210BA020
:1016D000FFF715F8042C08D14FF0E020006940F026
:1016E00004004FF0E021086107E04FF0E0200069BE
:1016F00020F004004FF0E021086110BD2E2E5C7038
:101700006C6174666F726D5C73746D333266313008
:10171000335C7372635C6D6973632E630000000059
:101720000000FA050CED00E000E400E080E100E0DC
:10173000FFFF0F0080FFFF1F10B5012002F033F8FC
:10174000002002F030F810BD10B504460CB1012C99
:1017500000D103E089219CA0FEF7D1FFA5480460D9
:1017600010BD10B504460CB1012C00D103E0962148
:1017700095A0FEF7C4FF9F48001F046010BD10B580
:1017800004460CB1012C00D103E0A3218EA0FEF78A
:10179000B6FF98488430046010BD70B5044600253B
:1017A0003CB1802C05D0B4F5807F02D0B4F5407FE9
:1017B00000D103E0B82184A0FEF7A1FF8E48058880
:1017C0004FF67F40054025438B48058070BD70B5BE
:1017D000044600257F2C00DC03E0CD217AA0FEF733
:1017E0008EFF854805884FF6807005402543824866
:1017F000058070BD38B504460D4600200090042CCD
:1018000051D0082C4FD00C2C4DD0102C4BD0142C78
:1018100049D0182C47D01C2C45D0202C43D0242C48
:1018200041D0282C3FD0402C3DD0442C3BD0482CDC
:1018300039D04C2C37D0502C35D0542C33D0582C98
:1018400031D05C2C2FD0602C2DD0642C2BD0682C68
:1018500029D06C2C27D0702C25D0742C23D0782C38
:1018600021D07C2C1FD0802C1DD0842C1BD0882C08
:1018700019D08C2C17D0902C15D0942C13D0982CD8
:1018800011D09C2C0FD0A02C0DD0A42C0BD0A82CA8
:1018900009D0AC2C07D0B02C05D0B42C03D0B82C78
:1018A00001D0BC2C00D103E0E32147A0FEF727FFC5
:1018B00051482C3800900098204400900098056012
:1018C00038BD38B5044600200090042C51D0082CB7
:1018D0004FD00C2C4DD0102C4BD0142C49D0182CA0
:1018E00047D01C2C45D0202C43D0242C41D0282C70
:1018F0003FD0402C3DD0442C3BD0482C39D04C2CF0
:1019000037D0502C35D0542C33D0582C31D05C2CBF
:101910002FD0602C2DD0642C2BD0682C29D06C2C8F
:1019200027D0702C25D0742C23D0782C21D07C2C5F
:101930001FD0802C1DD0842C1BD0882C19D08C2C2F
:1019400017D0902C15D0942C13D0982C11D09C2CFF
:101950000FD0A02C0DD0A42C0BD0A82C09D0AC2CCF
:1019600007D0B02C05D0B42C03D0B82C01D0BC2C9F
:1019700000D103E0F62114A0FEF7C1FE1E482C386A
:1019800000900098204400900098008838BD1948C5
:101990009C300068C0B2704717480830008840F09B
:1019A000010015490831088070471248A0300068CE
:1019B000C0B2704710480830008840F002000E495D
:1019C00008310880704700002E2E5C706C617466D0
:1019D0006F726D5C73746D3332663130335C737269
:1019E000635C73746D3332663130785F626B702E76
:1019F0006300000004860D422C6C00400020A749C3
:101A00000860091D0860091D0860091D0860A448D8
:101A1000A24914310860704770B50446002520794A
:101A200010B12079042800D103E06A219DA0FEF7BF
:101A300066FE6079082805D060790C2802D06079AC
:101A4000102800D103E06B2196A0FEF758FE206815
:101A50006FF3130010B9206800B103E06C2191A06E
:101A6000FEF74DFEA07910B1A079012800D103E066
:101A70006D218CA0FEF743FE884DA07990B32846D7
:101A800000682168884329460860081D00682168AD
:101A90008843291D08602079054428682168084387
:101AA00028607E4808300068216888437B490831F7
:101AB0000860081D00682168884378490C31086077
:101AC000607910280FD1081F006821680843734906
:101AD00008310860081D0068216808436F490C310F
:101AE00008600EE007E06D4D6079054428682168C4
:101AF0000843286005E02079054428682168884368
:101B0000286070BD0021016001710C21417100212C
:101B10008171704710B50446200D000508B904B165
:101B200003E0AE215FA0FEF7EAFD5C4810300068DC
:101B300020435A491031086010BD70B50446002595
:101B4000012C31D0022C2FD0042C2DD0082C2BD0DE
:101B5000102C29D0202C27D0402C25D0802C23D00D
:101B6000B4F5807F20D0B4F5007F1DD0B4F5806F30
:101B70001AD0B4F5006F17D0B4F5805F14D0B4F567
:101B8000005F11D0B4F5804F0ED0B4F5004F0BD0EC
:101B9000B4F5803F08D0B4F5003F05D0B4F5802FF0
:101BA00002D0B4F5002F00D103E0BE213DA0FEF726
:101BB000A6FD3A4814300068204008B1012500E035
:101BC0000025284670BD10B50446200D000508B953
:101BD00004B103E0D42133A0FEF791FD2F48143067
:101BE000046010BD70B5044600250026012C31D0DC
:101BF000022C2FD0042C2DD0082C2BD0102C29D027
:101C0000202C27D0402C25D0802C23D0B4F5807FE9
:101C100020D0B4F5007F1DD0B4F5806F1AD0B4F594
:101C2000006F17D0B4F5805F14D0B4F5005F11D009
:101C3000B4F5804F0ED0B4F5004F0BD0B4F5803F13
:101C400008D0B4F5003F05D0B4F5802F02D0B4F52C
:101C5000002F00D103E0E52112A0FEF750FD0F4850
:101C6000006800EA04060D4814300068204010B1F6
:101C70000EB1012500E00025284670BD10B50446D0
:101C8000200D000508B904B103E0FC2105A0FEF712
:101C900036FD02481430046010BD0000000401400D
:101CA000FFFF0F002E2E5C706C6174666F726D5CAE
:101CB00073746D3332663130335C7372635C73748A
:101CC0006D3332663130785F657874692E63000059
:101CD00070B5044600251CB1012C01D0022C00D1A6
:101CE00004E040F20311F5A0FEF709FDFE48056887
:101CF00005F038052543056070BD10B50446082C75
:101D000000D004B904E04FF48E71ECA0FEF7F7FCAC
:101D1000F548006820F00800F349086008460068AC
:101D20002043086010BD10B50446102C00D004B943
:101D300004E040F22F11E1A0FEF7E1FCEA48006860
:101D400020F01000E8490860084600682043086059
:101D500010BDE648E4494860E54848607047E348FC
:101D6000E1494860E24848607047DF48006940F058
:101D70008000DD4908617047DB48006940F0800061
:101D8000D949086170470420D749C96801F00101A9
:101D900009B101200EE0D449C96801F0040109B17C
:101DA000022007E0D049C96801F0100109B1032001
:101DB00000E00420704700B502460423FFF7E3FF6C
:101DC000034603E0FFF7DFFF0346521E012B01D15C
:101DD000002AF7D102B90523184600BD70B50446A4
:101DE0000425B4F1006F03D3C248844200D204E05A
:101DF00040F2A711B1A0FEF782FC4FF43020FFF7AC
:101E0000DAFF0546042D17D1B748006940F00200FB
:101E1000B549086108464461006940F04000086126
:101E20004FF43020FFF7C7FF0546AF48006941F681
:101E3000FD710840AC490861284670BD10B5042406
:101E40004FF43020FFF7B7FF0446042C16D1A64804
:101E5000006940F00400A44908610846006940F0A8
:101E6000400008614FF43020FFF7A5FF04469E486C
:101E7000006941F6FB7108409B490861204610BD8E
:101E800000B502460423FFF77EFF034603E0FFF799
:101E90007AFF0346521E012B01D1002AF7D102B965
:101EA0000523184600BD10B504244FF43020FFF779
:101EB000E7FF0446042C16D18B48006940F004006B
:101EC000894908610846006940F0400008614FF404
:101ED0003020FFF7D5FF04468348006941F6FB71C7
:101EE000084081490861204610BD00207E49C9692B
:101EF00001F0020109B1012000E00020704730B577
:101F0000A5250424FFF7F1FF00B100254FF4302090
:101F1000FFF751FF0446042C3AD174487249886097
:101F2000734888600846006940F020000861084650
:101F3000006940F0400008614FF43020FFF73BFF9C
:101F40000446042C1BD16848006941F6DF71084043
:101F5000654908610846006940F01000086166485C
:101F60000580E002FFF727FF0446052C10D05E48ED
:101F7000006941F6EF7108405B49086108E0052CF3
:101F800006D05948006941F6EF710840564908618A
:101F9000204630BDF8B504460D46042600200090CA
:101FA000B4F1006F03D35348844200D204E040F2FE
:101FB000AF2142A0FEF7A3FB4FF40050FFF7FBFE5A
:101FC0000646042E24D14848006940F001004649E5
:101FD00008612580F002FFF7EEFE0646042E10D1C0
:101FE000A01C0090280C00990880F002FFF7E3FE87
:101FF00006463D48006941F6FE7108403A490861CD
:1020000006E03948006941F6FE710840364908612A
:102010003046F8BD70B504460D460426B4F1006F95
:1020200003D33448844200D204E040F25E3123A05E
:10203000FEF765FB4FF40050FFF7BDFE0646042E89
:1020400011D12948006940F0010027490861258025
:10205000F002FFF7B0FE06462348006941F6FE7124
:10206000084021490861304670BD70B504460E46EF
:1020700004252148001D844202D0801C844200D1E6
:1020800004E040F2A5310DA0FEF739FB4FF40050FB
:10209000FFF791FE0546042D38D114481249886097
:1020A000134888600846006940F0100008612680E7
:1020B000E802FFF780FE0546052D1FE02E2E5C701E
:1020C0006C6174666F726D5C73746D33326631303F
:1020D000335C7372635C73746D3332663130785F76
:1020E000666C6173682E630000200240230167451F
:1020F000AB89EFCDFFFF0F0800F8FF1F06D0D048D7
:10210000006941F6EF710840CD490861284670BD6D
:102110002DE9F04704464FF6FF763746B046B14604
:10212000042504B105E040F2D631AFF27000FEF7AD
:10213000E6FAE443E6B2C4F30727C4F307484FEADC
:1021400014694FF40050FFF736FE0546042D3FD1C9
:10215000BC48BB498860BC4888600846006940F0BC
:1021600010000861FF2E05D0B8480680E802FFF78E
:1021700022FE0546042D08D1FF2F06D0B348801C4F
:102180000780E802FFF717FE0546042D0AD1B8F1D3
:10219000FF0F07D0AD48001DA0F80080E802FFF750
:1021A0000AFE0546042D0AD1B9F1FF0F07D0A74852
:1021B000801DA0F80090E802FFF7FDFD0546052D03
:1021C00006D09F48006941F6EF7108409C490861BC
:1021D0002846BDE8F08770B5054604240DB1012DF1
:1021E00000D105E040F21D41AFF23010FEF787FA52
:1021F0004FF43020FFF7DFFD0446042C43D1914813
:102200008F498860904888600846006940F0200047
:1022100008610846006940F0400008614FF4302032
:10222000FFF7C9FD0446042C24D18548006941F616
:10223000DF710840824908610846006940F01000DB
:10224000086125B1002081490839088003E0A520F4
:102250007E49083908804FF43020FFF7ACFD044672
:10226000052C10D07648006941F6EF71084074499A
:10227000086108E0052C06D07148006941F6DF715D
:1022800008406F490861204670BD2DE9F0410446C1
:102290000D4616460427012C00D004B905E040F293
:1022A0006341AFF2E810FEF72AFA022D00D005B91B
:1022B00005E040F26441AFF2FC10FEF720FA042E74
:1022C00000D006B905E040F26541AFF21020FEF7FC
:1022D00016FA5C485A4988605B4888604FF40050A1
:1022E000FFF769FD0746042F19D15548006940F0F2
:1022F00010005349086146F0F80028432043534931
:10230000891F0880F802FFF756FD0746052F06D003
:102310004B48006941F6EF71084049490861384669
:10232000BDE8F0814648C069800870474448006AAB
:10233000704700204249096801F0200109B10120DD
:1023400000E00020704770B504460D4624F4A0500C
:1023500008B904B105E040F22D51AFF2A020FEF71C
:10236000CEF90DB1012D00D105E040F22E51AFF2B2
:10237000B420FEF7C4F92DB131480069204330493B
:10238000086104E02E480069A0432D49086170BD32
:1023900070B504460025012C0FD0202C0DD0042C44
:1023A0000BD0102C09D0012C07D0202C05D0042CE8
:1023B00003D0102C01D0012C00D105E040F27A515D
:1023C000AFF20830FEF79BF9012C08D11C48C06918
:1023D00000F0010008B1012508E0002506E01848DA
:1023E000C068204008B1012500E00025284670BDE6
:1023F00010B5044624F0350008B904B105E040F2F8
:10240000B651AFF24830FEF77AF90D48C46010BDFE
:1024100004200B49C96801F0010109B101200EE057
:102420000749C96801F0040109B1022007E0044925
:10243000C96801F0100109B1032000E004207047D1
:102440000020024023016745AB89EFCD08F8FF1F4C
:1024500010B50446FC48844211D0FC4884420ED09A
:10246000FB4884420BD0FB48844208D0FA4884429F
:1024700005D0FA48844202D0F948844200D103E0F2
:102480006F21F8A0FEF73BF9EF48844208D1012103
:10249000042001F036F90021042001F032F946E071
:1024A000EA48844208D10121082001F02AF90021DC
:1024B000082001F026F93AE0E548844208D10121DC
:1024C000102001F01EF90021102001F01AF92EE071
:1024D000E048844208D10121202001F012F90021B6
:1024E000202001F00EF922E0DB48844208D10121CE
:1024F000402001F006F90021402001F002F916E029
:10250000D648844208D10121802001F0FAF8002148
:10251000802001F0F6F80AE0D148844207D1012179
:10252000801501F0EEF80021A01501F0EAF810BDC9
:1025300010B50121084601F0E4F80021012001F066
:10254000E0F810BD2DE9F05F05460C464FF000099C
:10255000CA4600260027B046B346BB48854211D084
:10256000BA4885420ED0BA4885420BD0B948854258
:1025700008D0B948854205D0B848854202D0B8484D
:10258000854200D103E0B221B6A0FEF7B8F8E078AA
:10259000A0B1E078042811D0E07828280ED0E078A7
:1025A00048280BD0E078142808D0E078102805D00F
:1025B000E0781C2802D0E078182800D103E0B3218D
:1025C000A8A0FEF79CF8002010B9208800B103E015
:1025D000B421A4A0FEF793F8E07800F00F09E078AA
:1025E00000F0100080B1A078012805D0A078022862
:1025F00002D0A078032800D103E0BB2199A0FEF708
:102600007EF8A07840EA0909207838B3D5F8008030
:1026100000261FE0012000FA06F7208800EA070ADA
:10262000BA4516D1B7000F2000FA07FB28EA0B08BD
:1026300009FA07F040EA0808E078282803D10120C9
:10264000B040686105E0E078482802D10120B04040
:102650002861761C082EDDD3C5F800802088FF286D
:102660002BDDD5F80480002623E006F108000121C7
:1026700001FA00F7208800EA070ABA4518D1B70026
:102680000F2000FA07FB28EA0B0809FA07F040EAD6
:102690000808E078282803D106F108008140696124
:1026A000E078482804D106F1080001218140296121
:1026B000761C082ED9D3C5F80480BDE8F09F4FF6EC
:1026C000FF710180022181700421C170704770B5D3
:1026D00005460C4600265C48854211D05B48854281
:1026E0000ED05B4885420BD05A48854208D05A48E4
:1026F000854205D05948854202D05948854200D1CB
:1027000004E04FF48F7157A0FDF7F9FF012C25D09D
:10271000022C23D0042C21D0082C1FD0102C1DD02B
:10272000202C1BD0402C19D0802C17D0B4F5807FE2
:1027300014D0B4F5007F11D0B4F5806F0ED0B4F58D
:10274000006F0BD0B4F5805F08D0B4F5005F05D002
:10275000B4F5804F02D0B4F5004F00D104E040F250
:102760001F1140A0FDF7CBFFA868204008B101264B
:1027700000E00026304670BD10B504463248844261
:1027800011D0324884420ED0314884420BD03148B7
:10279000844208D03048844205D03048844202D078
:1027A0002F48844200D104E04FF49A712DA0FDF728
:1027B000A6FFA06880B210BD70B505460C46002685
:1027C0002148854211D0214885420ED020488542BB
:1027D0000BD02048854208D01F48854205D01F48AD
:1027E000854202D01E48854200D104E04FF4A27118
:1027F0001CA0FDF784FF012C25D0022C23D0042C33
:1028000021D0082C1FD0102C1DD0202C1BD0402CE8
:1028100019D0802C17D0B4F5807F14D0B4F5007F88
:1028200011D0B4F5806F0ED0B4F5006F0BD0B4F5B5
:10283000805F08D0B4F5005F05D0B4F5804F02D0BA
:10284000B4F5004F24D129E000080140000C0140FC
:10285000001001400014014000180140001C01401C
:10286000002001402E2E5C706C6174666F726D5C8E
:1028700073746D3332663130335C7372635C7374BE
:102880006D3332663130785F6770696F2E63000098
:1028900040F24511AFF23400FDF731FFE868204007
:1028A00008B1012600E00026304670BD10B5044690
:1028B000FE48844211D0FE4884420ED0FD48844236
:1028C0000BD0FD48844208D0FC48844205D0FC4827
:1028D000844202D0FB48844200D105E04FF4AD7140
:1028E000AFF28000FDF70BFFE06880B210BD70B55D
:1028F00004460D46ED48844211D0ED4884420ED086
:10290000EC4884420BD0EC48844208D0EB48844227
:1029100005D0EB48844202D0EA48844200D105E069
:1029200040F26911AFF2C400FDF7E9FE002008B9DA
:1029300005B105E04FF4B571AFF2D800FDF7DFFE49
:10294000256170BD70B504460D46D848844211D04B
:10295000D74884420ED0D74884420BD0D648844210
:1029600008D0D648844205D0D548844202D0D54804
:10297000844200D105E040F27911AFF21810FDF762
:10298000BEFE002008B905B105E04FF4BD71AFF2FD
:102990002C10FDF7B4FE656170BD70B505460C46A0
:1029A0001646C248854211D0C14885420ED0C14862
:1029B00085420BD0C048854208D0C048854205D02A
:1029C000BF48854202D0BF48854200D105E040F2B1
:1029D0008D11AFF27010FDF792FE012C25D0022C64
:1029E00023D0042C21D0082C1FD0102C1DD0202C3B
:1029F0001BD0402C19D0802C17D0B4F5807F14D078
:102A0000B4F5007F11D0B4F5806F0ED0B4F5006F2F
:102A10000BD0B4F5805F08D0B4F5005F05D0B4F5F5
:102A2000804F02D0B4F5004F00D105E04FF4C771DC
:102A3000AFF2D010FDF763FE0EB1012E00D105E01C
:102A400040F28F11AFF2E410FDF759FE0EB12C6188
:102A500000E06C6170BD70B504460D469348844239
:102A600011D0934884420ED0924884420BD09248B1
:102A7000844208D09148844205D09148844202D0D3
:102A80009048844200D105E04FF4D271AFF22C207F
:102A9000FDF735FEE56070BD70B504460D464FF498
:102AA00080368248844211D0814884420ED08148C9
:102AB00084420BD08048844208D08048844205D0AC
:102AC0007F48844202D07F48844200D105E040F232
:102AD000B511AFF27020FDF712FE002008B905B164
:102AE00005E04FF4DB71AFF28420FDF708FE2E43C2
:102AF000A661A561A661A669A66970BD70B5054607
:102B00000C4600263DB1012D05D0022D03D0032D2A
:102B100001D0042D00D105E04FF4E971AFF2BC20E3
:102B2000FDF7EDFDECB1012C1BD0022C19D0032CCC
:102B300017D0042C15D0052C13D0062C11D0072C3F
:102B40000FD0082C0DD0092C0BD00A2C09D00B2C3F
:102B500007D00C2C05D00D2C03D00E2C01D00F2C3F
:102B600000D105E040F2D311AFF20830FDF7C7FD08
:102B7000554806684FF68070064046EA051626431B
:102B80005148066070BD10B504460CB1012C00D14F
:102B900005E04FF4F371AFF23430FDF7B0FD4B4870
:102BA000C46110BD2DE9F04704460E460027B84623
:102BB0000025A946012C77D0022C75D0042C73D0A7
:102BC000082C71D0424884426ED041482030844263
:102BD0006AD04048844267D03E488030844263D007
:102BE0003D48844260D03D4884425DD03C488442A8
:102BF0005AD03C48844257D03B48844254D0B4F524
:102C0000805F51D0B4F5EA1F4ED0B4F5EB1F4BD026
:102C1000B4F5004F48D03548844245D0401C84422A
:102C200042D0801C84427FD0001D84427CD02F483B
:102C30000F30844278D0B4F1201F75D04FEAF030C5
:102C4000844271D02A4884426ED02A4884426BD094
:102C50002948844268D02948844265D02848844263
:102C600062D0B4F5011F5FD0264884425CD0401C7E
:102C7000844259D0801C844256D0001D844253D0D7
:102C800020480F3084424FD01E481F3084424BD022
:102C90001C483F30844247D01A487F30844243D09A
:102CA0001848FF3084422FE03EE000000008014059
:102CB000000C0140001001400014014000180140C8
:102CC000001C0140002001400000014000002042A3
:102CD0001000140040001600000118000002180047
:102CE0000003180000081A00000C1A000100200060
:102CF000000130000002300000043000001120000C
:102D000000202000010000800ED0664884420BD0D5
:102D10006548844208D06548844205D064488442AE
:102D200002D06448844200D105E040F22A21AFF28B
:102D3000CC40FDF7E4FC0EB1012E00D105E040F2DD
:102D40002B21AFF2E040FDF7DAFC04F00040B0F1D7
:102D5000004F02D15848C56901E057484568C4F39F
:102D60000349A7B204F44010B0F5401F08D125F084
:102D700070655148406820F070604F49486013E02A
:102D800004F48010B0F5801F07D1032000FA09F881
:102D900025EA080545F0706506E0600D000107FAB8
:102DA00000F0854345F0706526B1600D010107FA1A
:102DB00001F0054304F00040B0F1004F02D13E485D
:102DC000C56101E03C484560BDE8F08770B5054647
:102DD0000C4600265DB1012D09D0022D07D0032D30
:102DE00005D0042D03D0052D01D0062D00D105E01E
:102DF00040F26521AFF29450FDF781FCECB1012C5B
:102E00001BD0022C19D0032C17D0042C15D0052C64
:102E100013D0062C11D0072C0FD0082C0DD0092C64
:102E20000BD00A2C09D00B2C07D00C2C05D00D2C64
:102E300003D00E2C01D00F2C00D105E040F266210A
:102E4000AFF2E050FDF75BFCA007010F0F2000FA86
:102E500001F619480830A11050F82100B043164976
:102E60000831A21041F822000846A11050F82100B4
:102E7000A107090F05FA01F108430F490831A21013
:102E800041F8220070BD10B504460CB1012C00D1F0
:102E900005E04FF41E71AFF23460FDF730FC0748D7
:102EA000046010BD00020080000400800008008063
:102EB000001000800020008000000140DC00204263
:102EC00010B50121080700F045FC00214FF08050AB
:102ED00000F040FC10BD10B504460CB1012C00D12F
:102EE00003E07F2155A0FDF70AFC5F48046210BD96
:102EF00010B504460CB1012C00D103E08C214FA089
:102F0000FDF7FDFB5848046110BD70B5044600256F
:102F10006CB1202C0BD0402C09D0602C07D0802C19
:102F200005D0A02C03D0C02C01D0E02C00D103E0B0
:102F3000A22142A0FDF7E3FB4C48056825F0E0051F
:102F40002543056070BD10B504460CB1012C00D1BD
:102F500003E0B52139A0FDF7D2FB4348A03004605F
:102F600010BD70B504460D4600260CB1012C00D1F1
:102F700003E0C92131A0FDF7C2FB012D01D0022DD4
:102F800000D103E0CA212DA0FDF7B9FB3748066840
:102F900026F00306264306603548006840F004002A
:102FA00033490860012D01D130BF00E020BF304817
:102FB000006820F004002E49086070BD2B480068AE
:102FC00040F00400294908600846006840F002000B
:102FD00008602748006840F004002549086000BFE9
:102FE00000BF30BF704770B504460025012C03D0E8
:102FF000022C01D0042C00D104E040F209110FA0F2
:10300000FDF77DFB19484068204008B1012500E02C
:103010000025284670BD10B50446012C01D0022CB5
:1030200000D104E04FF4917104A0FDF768FB0F4854
:10303000006840EA84000D49086010BD2E2E5C70C7
:103040006C6174666F726D5C73746D3332663130AF
:10305000335C7372635C73746D3332663130785FE6
:103060007077722E6300000000000E420070004076
:1030700010ED00E0FE48006840F00100FC490860E7
:1030800008464068FB490840F9494860084600681E
:10309000F9490840F64908600846006820F4802095
:1030A00008600846406820F4FE0048604FF41F00A6
:1030B0008860704710B504462CB1B4F5803F02D04B
:1030C000B4F5802F00D104E040F21111EBA0FDF720
:1030D00016FBE748006820F48030E54908600846A0
:1030E000006820F480200860B4F5803F03D0B4F578
:1030F000802F0ED106E0DE48006840F48030DC49C5
:10310000086007E0DA48006840F4A020D849086069
:1031100000E000BF00BF10BD2DE9F04104460025CE
:1031200000260027212C13D0312C11D0392C0FD0A0
:10313000412C0DD0612C0BD07A2C09D07B2C07D0E0
:103140007C2C05D07D2C03D07E2C01D07F2C00D18F
:1031500004E040F23451C9A0FDF7D1FA6511012D08
:1031600002D1C348066806E0022D02D1C048066AB3
:1031700001E0BF48466A04F01F050120A840304026
:1031800008B1012700E000273846BDE8F08138B5D6
:10319000002000900024002500BF3120FFF7BCFF75
:1031A00005460098401C00900098B0F5A06F01D033
:1031B000002DF2D03120FFF7AFFF08B1012400E06D
:1031C0000024204638BD70B5044600251F2C00DCC5
:1031D00004E04FF4A971A9A0FDF791FAA44805688D
:1031E00025F0F80545EAC405056070BD10B5044634
:1031F0000CB1012C00D104E040F265119FA0FDF755
:103200007EFAA948046010BD70B505460C4600263C
:103210002DB1B5F5803F02D0B5F5403F00D104E0B7
:1032200040F27F1195A0FDF76AFA4CB3B4F5802FF8
:1032300026D0B4F5002F23D0B4F5402F20D0B4F51C
:10324000801F1DD0B4F5A01F1AD0B4F5C01F17D031
:10325000B4F5E01F14D0B4F5001F11D0B4F5101F61
:103260000ED0B4F5201F0BD0B4F5301F08D0B4F544
:10327000401F05D0B4F5501F02D0B4F5601F00D137
:1032800004E04FF4C0717DA0FDF739FA7848466834
:1032900026F47C1645EA040006437548466070BD76
:1032A00010B504460CB1012C00D104E04FF4CA71F2
:1032B00072A0FDF724FA7C48046610BD70B5044680
:1032C00000251CB1012C01D0022C00D104E04FF4E8
:1032D0000E716AA0FDF713FA6548456825F00305ED
:1032E0002543456070BD6248406800F00C0070479F
:1032F00070B5044600257CB1802C0DD0902C0BD0ED
:10330000A02C09D0B02C07D0C02C05D0D02C03D0D5
:10331000E02C01D0F02C00D104E04FF4197157A03B
:10332000FDF7EDF95248456825F0F0052543456065
:1033300070BD70B5044600255CB1B4F5806F08D04F
:10334000B4F5A06F05D0B4F5C06F02D0B4F5E06F4E
:1033500000D104E040F27E2148A0FDF7D0F94448B6
:10336000456825F4E0652543456070BD70B50446A9
:1033700000255CB1B4F5806F08D0B4F5A06F05D01E
:10338000B4F5C06F02D0B4F5E06F00D104E04FF4A3
:1033900026713AA0FDF7B3F93548456825F4605524
:1033A00045EAC405456070BD70B504460D4604F09D
:1033B000E00008B904B104E040F2BF212FA0FDF7FE
:1033C0009EF90DB1012D00D104E04FF430712BA016
:1033D000FDF795F92DB12648407A204324494872DB
:1033E00004E02348407AA0432149487270BD10B5DB
:1033F00004460CB1012C00D104E040F2DB211FA0F7
:10340000FDF77DF92848D830046010BD70B504463A
:10341000002544B1B4F5804F05D0B4F5004F02D07B
:10342000B4F5404F00D104E040F2023113A0FDF7A3
:1034300066F90F48456825F440452543456070BD51
:1034400010B504461CB1012C01D0042C00D104E0BD
:103450004FF4507109A0FDF752F9002004492031C2
:103460000870034981F82000012C21D0042C1DE0B4
:10347000001002400000FFF8FFFFF6FE2E2E5C70E9
:103480006C6174666F726D5C73746D33326631306B
:10349000335C7372635C73746D3332663130785FA2
:1034A0007263632E630000000000424208D103E013
:1034B0000120F449087004E00520F249087000E09A
:1034C00000BF00BF10BD10B504460CB1012C00D1E7
:1034D00005E040F26131AFF25C00FDF710F9EA4817
:1034E000046010BD10B50446B4F5807F05D0B4F576
:1034F000007F02D0B4F5407F00D105E040F2723188
:10350000AFF28800FDF7FBF8DE482038006A204360
:10351000DC492039086210BD10B504460CB1012CFD
:1035200000D105E04FF46071AFF2B000FDF7E7F8AD
:10353000D5484438046010BD30B500210022002475
:103540000023D04D203D6D6805F00C0121B1042908
:1035500005D0082926D105E0CC4D056025E0CB4DEE
:10356000056022E0C74D203D6D6805F47012C54D21
:10357000203D6D6805F48034022505EB92421CB9AC
:10358000C34D554305600CE0BE4D203D6D6805F40C
:1035900000351DB1BE4D5543056002E0BB4D55439E
:1035A000056002E0B94D056000BF00BFB54D203D8C
:1035B0006D6805F0F0010909B64D6B5C0568DD40EA
:1035C0004560B04D203D6D6805F4E061090AB14DDC
:1035D0006B5C4568DD408560AA4D203D6D6805F453
:1035E0006051C90AAB4D6B5C4568DD40C560A54DB7
:1035F000203D6D6805F44041890BA74D6B5CC568A3
:10360000B5FBF3F5056130BD70B504460D4640F2DB
:10361000575024EA000008B904B105E040F22B41FC
:10362000AFF2A810FDF76BF80DB1012D00D105E048
:1036300040F22C41AFF2BC10FDF761F83DB191486A
:103640002038406920438F492039486106E08D4881
:1036500020384069A0438B492039486170BD70B55E
:1036600004460D468D48204008B904B105E040F2FB
:103670004A41AFF2F810FDF742F80DB1012D00D12B
:1036800005E040F24B41AFF20C20FDF738F83DB1B8
:103690007C482038806920437A492039886106E0D7
:1036A000784820388069A04376492039886170BD08
:1036B00070B504460D467A48204008B904B105E0CB
:1036C00040F26941AFF24C20FDF719F80DB1012D20
:1036D00000D105E040F26A41AFF26020FDF70FF83B
:1036E0003DB168482038C069204366492039C86127
:1036F00006E064482038C069A04362492039C861A7
:1037000070BD70B504460D466448204008B904B148
:1037100005E040F2A441AFF29C20FCF7F0FF0DB1B0
:10372000012D00D105E040F2A541AFF2B020FCF739
:10373000E6FF3DB153482038C06820435149203945
:10374000C86006E04F482038C068A0434D49203982
:10375000C86070BD70B504460D465148204008B998
:1037600004B105E040F2C341AFF2F020FCF7C7FF1F
:103770000DB1012D00D105E040F2C441AFF204309B
:10378000FCF7BDFF3DB13F482038006920433D496B
:103790002039086106E03B4820380069A0433949D8
:1037A0002039086170BD10B504460CB1012C00D160
:1037B00005E04FF49B61AFF23C30FCF7A0FF3248CC
:1037C0004038046010BD10B504460CB1012C00D186
:1037D00005E040F2E541AFF25C30FCF790FF314884
:1037E000C46410BD10B504463CB1052C05D0042CB2
:1037F00003D0062C01D0072C00D105E040F2055182
:10380000AFF28830FCF77BFF1E482038C47110BD32
:103810001C482038406A40F080701A4920394862BC
:10382000704770B504460025012C09D0022C07D042
:10383000042C05D0082C03D0102C01D0802C00D1F2
:1038400005E040F27E51AFF2CC30FCF758FF0D4856
:1038500020388068204008B1012500E00025284676
:1038600070BD10B5044604F0600008B904B105E06D
:1038700040F2AB51AFF2FC30FCF741FF0148203879
:10388000847210BD201002408004424200127A006F
:1038900000093D00C0000020D00000200200C0FF51
:1038A000003601810000424270B504460D464FF6D5
:1038B000F870204008B904B103E05D2176A0FCF760
:1038C0001EFF0DB1012D00D103E05E2172A0FCF7B7
:1038D00016FF2DB17B48008820437A49088004E018
:1038E00078480088A0437749088070BD7548001D5E
:1038F000008840F010007349091D08807047714826
:10390000001D00884FF6EF7108406E49091D0880C0
:10391000704700216B481C300188001F008841EA75
:103920000040704700B50246FFF7E0FF100C654904
:1039300018310880091D0A80FFF7E1FF00BD10B5AE
:103940000446B4F5801F00D203E0A32152A0FCF787
:10395000D6FEFFF7CBFFC4F303405A490831088075
:10396000091D0C80FFF7CBFF10BD00B50246FFF725
:10397000BDFF100C534920310880091D0A80FFF754
:10398000BEFF00BD00204F49103109880907080B10
:103990004C49143109880843704700BF4948001D4D
:1039A000008800F020000028F8D070474548001D2E
:1039B00000884FF6F77108404249091D088000BF92
:1039C0004048001D008800F008000028F8D070472B
:1039D00070B504460025202C07D0082C05D0042CF7
:1039E00003D0022C01D0012C00D103E0F9212AA040
:1039F000FCF785FE3348001D0088204008B10125F2
:103A000000E00025284670BD10B504464FF6F07062
:103A1000204008B904B104E04FF48A711EA0FCF7FD
:103A20006EFE2848001D0088A0432649091D088015
:103A300010BD70B504460025042C03D0022C01D023
:103A4000012C00D104E040F2271113A0FCF757FE2F
:103A50001C48001D00882040C5B21A48008820403C
:103A600010B10DB1012500E00025284670BD10B54C
:103A700004464FF6F870204008B904B104E040F263
:103A8000411105A0FCF73BFE0E48001D0088A04335
:103A90000C49091D088010BD2E2E5C706C61746687
:103AA0006F726D5C73746D3332663130335C737278
:103AB000635C73746D3332663130785F7274632E79
:103AC000630000000028004010B50446F848844216
:103AD0002FD0B4F1804F2CD0F648844229D0F6483C
:103AE000844226D0F548844223D0F548844220D031
:103AF000F44884421DD0F44884421AD0F3488442EA
:103B000017D0F348844214D0F248844211D0F248CE
:103B100084420ED0F14884420BD0F148844208D050
:103B2000F048844205D0F048844202D0EF488442F5
:103B300000D103E07D21EEA0FCF7E1FDDC488442EA
:103B400008D10121C014FFF7DCFD0021E014FFF7CC
:103B5000D8FDC4E0B4F1804F08D101210846FFF739
:103B6000F9FD00210120FFF7F5FDB8E0D1488442BE
:103B700008D101210220FFF7EDFD00210220FFF70F
:103B8000E9FDACE0CC48844208D101210420FFF7D4
:103B9000E1FD00210420FFF7DDFDA0E0C7488442DD
:103BA00008D101210820FFF7D5FD00210820FFF7EB
:103BB000D1FD94E0C248844208D101211020FFF7D2
:103BC000C9FD00211020FFF7C5FD88E0BD488442F3
:103BD00008D101212020FFF7BDFD00212020FFF7A3
:103BE000B9FD7CE0B848844208D101214014FFF7B8
:103BF00088FD00216014FFF784FD70E0B348844223
:103C000009D10121C804FFF77CFD00214FF40020F9
:103C1000FFF777FD63E0AE48844209D10121080532
:103C2000FFF76FFD00214FF48010FFF76AFD56E0AB
:103C3000A848844209D101214805FFF762FD00210F
:103C40004FF40010FFF75DFD49E0A348844208D11E
:103C500001214020FFF77EFD00214020FFF77AFD83
:103C60003DE09E48844208D101218020FFF772FD8B
:103C700000218020FFF76EFD31E09948844208D191
:103C800001218015FFF766FD0021A015FFF762FDF9
:103C900025E09448844209D101210804FFF731FD51
:103CA00000214FF48030FFF72CFD18E08E4884424D
:103CB00009D101214804FFF724FD00214FF4003011
:103CC000FFF71FFD0BE08948844208D101218804D9
:103CD000FFF717FD00214FF48020FFF712FD10BD04
:103CE00070B504460D460026714884422FD0B4F1C9
:103CF000804F2CD06F48844229D06F48844226D010
:103D00006E48844223D06E48844220D06D4884425D
:103D10001DD06D4884421AD06C48844217D06C483C
:103D2000844214D06B48844211D06B4884420ED038
:103D30006A4884420BD06A48844208D06948844269
:103D400005D06948844202D06848844200D103E02B
:103D5000E72167A0FCF7D3FC688858B16888102871
:103D600008D06888202805D06888402802D0688854
:103D7000602800D103E0E8215DA0FCF7C0FCE888E2
:103D800038B1E888B0F5807F03D0E888B0F5007FCF
:103D900000D103E0E92156A0FCF7B1FC2688444895
:103DA00084420ED0484884420BD0B4F1804F08D0F2
:103DB0004048844205D04048844202D03F48844273
:103DC00004D14FF68F700640688806433C48844211
:103DD00007D03C48844204D04FF6FF400640E888B4
:103DE00006432680A888A0852888208530488442FC
:103DF0000BD03548844208D03A48844205D03A482E
:103E0000844202D03948844201D1287A2086012098
:103E1000A08270BD2DE9F04104460D464FF0000828
:103E2000002600272248844229D0B4F1804F26D0B2
:103E30002048844223D02048844220D01F48844216
:103E40001DD0214884421AD02048844217D02048EF
:103E5000844214D01F48844211D01F4884420ED09F
:103E60001E4884420BD01E48844208D01D4884421C
:103E700005D01D48844202D01C48844200D104E091
:103E80004FF48E711AA0FCF73AFC288870B128888C
:103E900010280BD02888202808D02888302805D062
:103EA0002888602802D02888702837D13CE000009C
:103EB000002C01400004004000080040000C0040BD
:103EC000001000400014004000340140004C01404C
:103ED000005001400054014000180040001C004008
:103EE00000200040004001400044014000480140E3
:103EF0002E2E5C706C6174666F726D5C73746D33C2
:103F000032663130335C7372635C73746D33326666
:103F10003130785F74696D2E6300000040F21D112E
:103F2000AFF23400FCF7EBFB688810B16888012819
:103F300000D105E04FF48F71AFF24C00FCF7DFFBCE
:103F4000288910B12889022800D105E040F21F110C
:103F5000AFF26400FCF7D3FB208C4FF6FE710840F3
:103F60002084268CA788B4F818804FF68F7008EA52
:103F70000008881E08EA0008288840EA0808481E49
:103F800006402889064368880643FE4884420BD0D1
:103F9000FD48844208D0FD48844205D0FC48844254
:103FA00002D0FC48844245D1A88810B1A8880428D2
:103FB00000D105E04FF49E71AFF2CC00FCF79FFBFF
:103FC000688910B16889082800D105E040F23D11E8
:103FD000AFF2E400FCF793FBE889B0F5007F01D075
:103FE000E88900B905E04FF49F71AFF2FC00FCF7DF
:103FF00086FBA889B0F5807F01D0A88900B905E0CB
:1040000040F23F11AFF21810FCF779FB4FF6F77052
:104010000640688906434FF6FB700640A8880643B1
:104020004FF6FF6007404FF6FF500740A88907434F
:10403000E8890743A780A4F81880E888A08626842A
:10404000BDE8F0812DE9F04105460C464FF000082F
:1040500000260027CB48854217D0B5F1804F14D0F9
:10406000CD48854211D0CD4885420ED0CC488542FE
:104070000BD0C548854208D0CA48854205D0CA48F9
:10408000854202D0C148854200D105E040F26F115F
:10409000AFF2A410FCF733FB208870B12088102801
:1040A0000BD02088202808D02088302805D02088F0
:1040B000602802D02088702800D105E04FF4B87144
:1040C000AFF2D410FCF71BFB608810B160880128A8
:1040D00000D105E040F27111AFF2EC10FCF70FFBDC
:1040E000208910B12089022800D105E04FF4B97170
:1040F000AFF20420FCF703FB288C4FF6EF71084069
:1041000028842E8CAF88B5F8188048F6FF7008EA2E
:1041100000084FF6FF4008EA000820884FF6FF71BC
:1041200001EA002040EA08084FF6DF7006402089C7
:1041300001EA00100643608801EA00100643914836
:10414000854202D0904885424FD1A08810B1A08806
:10415000042800D105E040F28F11AFF26C20FCF78B
:10416000CEFA608910B16089082800D105E04FF4CB
:10417000C871AFF28420FCF7C2FAE089B0F5007F85
:1041800001D0E08900B905E040F29111AFF2A02022
:10419000FCF7B5FAA089B0F5807F01D0A08900B9FD
:1041A00005E04FF4C971AFF2B820FCF7A8FA4FF65A
:1041B0007F70064060894FF6FF7101EA00100643E8
:1041C0004FF6BF700640A08801EA001006434FF684
:1041D000FF3007404FF2FF700740A08901EA8000DE
:1041E0000743E08901EA80000743AF80A5F8188003
:1041F000E08828872E84BDE8F0812DE9F04105464E
:104200000C464FF00008002600275E4885420ED07D
:10421000B5F1804F0BD06048854208D05F48854299
:1042200005D05F48854202D05748854200D105E05D
:1042300040F2C111AFF24830FCF761FA208870B14A
:10424000208810280BD02088202808D020883028EB
:1042500005D02088602802D02088702800D105E091
:104260004FF4E171AFF27830FCF749FA608810B191
:104270006088012800D105E040F2C311AFF2903010
:10428000FCF73DFA208910B12089022800D105E011
:104290004FF4E271AFF2A830FCF731FA288C4FF6F8
:1042A000FF61084028842E8CAF88B5F81C804FF63B
:1042B0008F7008EA00084FF6FC7008EA00082088B2
:1042C00040EA08084FF6FF50064020894FF6FF717C
:1042D00001EA00200643608801EA002006432948DD
:1042E000854202D02848854264D1A08810B1A088B8
:1042F000042800D105E04FF4F071AFF20C40FCF758
:10430000FEF9608910B16089082800D105E040F20B
:10431000E111AFF22440FCF7F2F9E089B0F5007F3B
:1043200001D0E08900B905E04FF4F171AFF24040EF
:10433000FCF7E5F9A089B0F5807F01D0A08900B92C
:1043400005E040F2E311AFF25840FCF7D8F94FF224
:10435000FF70064060894FF6FF7101EA00200643B6
:104360004FF6FF300640A08801EA002006434EF6D3
:10437000FF7007404DF6FF700740A08901EA00106A
:10438000074313E0002C014000340140004001408D
:104390000044014000480140000400400008004083
:1043A000000C0040004C014000180040E08901EA88
:1043B00000100743AF80A5F81C80E088A8872E84F2
:1043C000BDE8F0812DE9F04104460D4600270026A6
:1043D000B046F84884420ED0B4F1804F0BD0F64876
:1043E000844208D0F548844205D0F548844202D082
:1043F000F448844200D105E04FF40471AFF210504C
:10440000FCF77DF9288870B1288810280BD02888FF
:10441000202808D02888302805D02888602802D095
:104420002888702800D105E040F21121AFF24050F9
:10443000FCF765F9688810B16888012800D105E0AB
:1044400040F21221AFF25850FCF759F9288910B107
:104450002889022800D105E040F21321AFF2705004
:10446000FCF74DF9208C4EF6FF7108402084268C15
:10447000B4F80480A78B48F6FF7007404FF6FF4062
:10448000074028884FF6FF7101EA002007434DF6E8
:10449000FF700640288901EA00300643688801EA77
:1044A00000300643C348844202D0C648844217D134
:1044B000A889B0F5807F01D0A88900B905E04FF444
:1044C0000C71AFF2D450FCF71AF94BF6FF7008EA02
:1044D0000008A8894FF6FF7101EA801040EA080839
:1044E000A4F80480A783E888A4F840002684BDE8E7
:1044F000F08170B504460D46AE4884420ED0B4F14A
:10450000804F0BD0AC48844208D0AC48844205D0E0
:10451000AB48844202D0AB48844200D105E040F66B
:104520007611AFF23460FCF7EAF82DB1042D03D018
:10453000082D01D00C2D00D105E040F67711AFF227
:104540005060FCF7DCF8A08B4FF2FF310840A083ED
:10455000A08B4FF6FF7101EA05210843A08370BDCF
:10456000F0B50C461546002200210026078C4EF6B9
:10457000FF7C07EA0C070784828B018C4FF6FF77DC
:1045800007EA043640F6FF473A404FF6FF7707EA5E
:1045900005273A434FF6FF7707EA03373A43854F3B
:1045A000B8420ED0874FB8420BD0B0F1804F08D040
:1045B000814FB84205D0814FB84202D0804FB842F7
:1045C00006D14DF6FF77394046F48057394305E070
:1045D00047F6FF57394044F48057394382830184BA
:1045E000F0BD70B504460D46724884420ED0B4F159
:1045F000804F0BD07048844208D07048844205D068
:104600006F48844202D06F48844200D105E04FF4E5
:104610001661AFF22470FCF772F82DB1042D03D0AF
:10462000082D01D00C2D00D105E040F66111AFF24C
:104630004070FCF764F8A08B4FF6F3710840A0833C
:10464000A08B2843A08370BDF0B50C461546002210
:1046500000210026078C4FF6FF6C07EA0C07078441
:10466000828B018C4FF6FF7707EA04264FF60C7712
:104670003A404FF6FF7707EA03172F433A434D4F6F
:10468000B8420ED04F4FB8420BD0B0F1804F08D097
:10469000494FB84205D0494FB84202D0484FB842BE
:1046A00006D14FF6FF57394046F48077394305E08D
:1046B0004FF2FF57394044F48077394382830184B5
:1046C000F0BD70B504460D463A48844217D0B4F1A7
:1046D000804F14D03848844211D0384884420ED0DC
:1046E000374884420BD03748844208D03648844249
:1046F00005D03648844202D03548844200D105E0D6
:1047000040F64A11AFF61800FBF7F9FF2DB1042D62
:1047100003D0082D01D00C2D00D105E040F64B113F
:10472000AFF63400FBF7EBFF208B4FF2FF31084070
:104730002083208B4FF6FF7101EA05210843208377
:1047400070BDF0B50C461546002200210026078CEE
:104750004FF6EF7C07EA0C070784028B018C4FF6BB
:10476000FF7707EA041640F6FF473A404FF6FF7717
:1047700007EA03373A434FF6FF7707EA05273A433C
:104780000C4FB8420ED00F4FB8420BD0B0F1804F53
:1047900008D0094FB84205D0084FB84202D0084FA0
:1047A000B84217D14FF6DF77394046F0100739434A
:1047B00016E00000002C014000040040000800400A
:1047C000000C004000340140004C01400018004043
:1047D000004001404FF65F77394044F010073943FD
:1047E00002830184F0BD70B504460D46FB48844247
:1047F00029D0B4F1804F26D0F948844223D0F9481B
:10480000844220D0F84884421DD0F84884421AD00F
:10481000F748844217D0F748844214D0F6488442BF
:1048200011D0F64884420ED0F54884420BD0F548AA
:10483000844208D0F448844205D0F448844202D02F
:10484000F348844200D105E040F63411AFF6601021
:10485000FBF755FF2DB1042D03D0082D01D00C2DF1
:1048600000D105E040F63511AFF67C10FBF747FFAD
:10487000208B4FF6F37108402083208B2843208340
:1048800070BDF0B50C46154600220021068C4FF68F
:10489000FE773E400684028B018C4FF60C76324048
:1048A0007E1C06EA03162E433243CC4EB0420ED095
:1048B000CE4EB0420BD0B0F1804F08D0C84EB042BF
:1048C00005D0C84EB04202D0C74EB04206D14FF616
:1048D000FD76314044F00106314305E04FF6F576B0
:1048E000314044F00106314302830184F0BD70B5CC
:1048F00004460D46288840B12888042805D0288819
:10490000082802D028880C2800D105E040F24E216A
:10491000AFF62420FBF7F3FEA888012805D0A8886D
:10492000022802D0A888032800D105E040F24F21D8
:10493000AFF64420FBF7E3FEE88840B1E88804289E
:1049400005D0E888082802D0E8880C2800D105E0C6
:104950004FF41471AFF66820FBF7D1FE28890F28B9
:1049600000DC05E040F25121AFF67C20FBF7C7FEEA
:104970009A4884420ED09D4884420BD0B4F1804FB7
:1049800008D09748844205D09648844202D0964881
:1049900084420CD1688810B16888022800D115E0E3
:1049A00040F25621AFF6B820FBF7A9FE0EE068886A
:1049B00028B16888022802D068880A2800D105E05A
:1049C00040F25A21AFF6D820FBF799FE2888E0BBC9
:1049D0008248844229D0B4F1804F26D08048844256
:1049E00023D08048844220D07F4884421DD07F4815
:1049F00084421AD07E48844217D07E48844214D024
:104A00007D48844211D07D4884420ED07C48844247
:104A10000BD07C48844208D07B48844205D07B4838
:104A2000844202D07A48844200D105E040F25E21FF
:104A3000AFF64430FBF763FE2B89AA8869882046CD
:104A4000FFF71FFFE988204600E002E0FFF7CBFEFA
:104A500079E0288804282CD16048844217D0B4F12A
:104A6000804F14D05E48844211D05E4884420ED0FC
:104A70005D4884420BD05D48844208D05C48844243
:104A800005D05E48844202D05F48844200D105E0F0
:104A90004FF41A71AFF6A830FBF731FE2B89AA88C4
:104AA00069882046FFF74DFEE9882046FFF709FE9A
:104AB00049E02888082823D1484884420ED0B4F120
:104AC000804F0BD04648844208D04648844205D0E7
:104AD0004548844202D04548844200D105E040F276
:104AE0007221AFF6F430FBF70AFE2B89AA88698899
:104AF0002046FFF7A9FDE9882046FFF772FD22E076
:104B0000364884420ED0B4F1804F0BD034488442F2
:104B100008D03448844205D03348844202D0334818
:104B2000844200D105E04FF41F71AFF63C40FBF723
:104B3000E6FD2B89AA8869882046FFF711FDE988E0
:104B40002046FFF7D6FC70BD2DE9F04105460C4626
:104B5000002601272148854217D0B5F1804F14D097
:104B60001F48854211D01F4885420ED01E488542FD
:104B70000BD01E48854208D01D48854205D01F48ED
:104B8000854202D02048854200D105E040F29321C1
:104B9000AFF6A440FBF7B3FD608808B9022600E039
:104BA0000026A088012801D1022700E001272088E3
:104BB00080BB2389A28861882846FFF762FEE188CE
:104BC0002846FFF710FE23893A4631462846FFF76C
:104BD000B8FDE1882846FFF774FD30E0002C014065
:104BE0000004004000080040000C00400034014078
:104BF000004C0140005001400054014000180040AA
:104C0000001C0040002000400040014000440140E2
:104C100000480140FFE72389A28861882846FFF702
:104C200090FDE1882846FFF74CFD23893A4631463E
:104C30002846FFF726FEE1882846FFF7D4FDBDE8A9
:104C4000F08170B505460C46FE4885420BD0FE4803
:104C5000854208D0FD48854205D0FD48854202D0F6
:104C6000FC48854200D105E040F2CB21AFF68050F0
:104C7000FBF745FD2088B0F5006F01D0208800B912
:104C800005E04FF43371AFF69850FBF738FD6088BC
:104C9000B0F5806F01D0608800B905E040F2CD2109
:104CA000AFF6B450FBF72BFDA08858B1A088B0F543
:104CB000807F07D0A088B0F5007F03D0A088B0F532
:104CC000407F00D105E040F2CE21AFF6DC50FBF78B
:104CD00016FD2089B0F5805F01D0208900B905E07C
:104CE00040F2CF21AFF6F850FBF709FD608918B10B
:104CF0006089B0F5005F00D105E04FF43471AFF684
:104D00001060FBF7FCFCA089B0F5804F01D0A089B2
:104D100000B905E040F2D121AFF62C60FBF7EFFCC3
:104D2000208861880843A1880843E18808432189D5
:104D3000084361890843A1890843A5F8440070BD70
:104D40004FF6FF71818000210180C1804180017296
:104D500070470021018041808180C18001814181B3
:104D60008181C181704700210180418001218180C2
:104D70000021C18001817047002101804180818034
:104D8000C180018141818181704770B504460D4623
:104D9000AC4884422FD0B4F1804F2CD0AE4884422E
:104DA00029D0AE48844226D0AD48844223D0AD48B5
:104DB000844220D0AC4884421DD0A34884421AD0FB
:104DC000AA48844217D0AA48844214D0A9488442F1
:104DD00011D0A94884420ED0A84884420BD0A848DC
:104DE000844208D09948844205D09948844202D030
:104DF0009848844200D105E040F22931AFF61070A6
:104E0000FBF77DFC0DB1012D00D105E040F22A3108
:104E1000AFF62470FBF773FC25B1208840F0010049
:104E2000208004E020884FF6FE710840208070BD8D
:104E300070B504460D46834884420BD082488442B4
:104E400008D08248844205D08148844202D08148FB
:104E5000844200D105E040F24231AFF66C70FBF7BE
:104E60004EFC0DB1012D00D105E040F24331AFF60B
:104E70008070FBF744FC35B1B4F8440040F40040C6
:104E8000A4F8440005E0B4F84400C0F30E00A4F810
:104E9000440070BD70B504460D461646694884420C
:104EA0002FD0B4F1804F2CD06B48844229D06B486E
:104EB000844226D06A48844223D06A48844220D063
:104EC000694884421DD0604884421AD067488442B1
:104ED00017D06748844214D06648844211D066488F
:104EE00084420ED0654884420BD06548844208D085
:104EF0005648844205D05648844202D055488442E0
:104F000000D104E040F26B315E48FBF7F8FB05F49A
:104F10007F4008B905B104E04FF45B715948FBF7D5
:104F2000EEFB0EB1012E00D104E040F26D31554888
:104F3000FBF7E5FB1EB1A0892843A08102E0A08910
:104F4000A843A08170BD70B504460D463D4884421B
:104F50002FD0B4F1804F2CD03F48844229D03F4815
:104F6000844226D03E48844223D03E48844220D00A
:104F70003D4884421DD0344884421AD03B48844284
:104F800017D03B48844214D03A48844211D03A4862
:104F900084420ED0394884420BD03948844208D02C
:104FA0002A48844205D02A48844202D029488442B3
:104FB00000D104E04FF464713248FBF7A0FB05F424
:104FC0007F4008B905B104E040F291312D48FBF76C
:104FD00096FBA58270BD70B506460C46154619486D
:104FE000864217D0B6F1804F14D01B48864211D0AC
:104FF0001A4886420ED01A4886420BD01248864282
:1050000008D01248864205D01148864202D0114885
:10501000864200D104E04FF46B711A48FBF76FFB36
:1050200094B3012C45D0022C43D0032C41D0042C46
:105030003FD0052C3DD0062C3BD0072C39D0082C76
:1050400037D022E0002C01400034014000400140F4
:1050500000440140004801400004004000080040B6
:10506000000C00400010004000140040004C0140C3
:10507000005001400054014000180040001C004056
:1050800000200040F03E000813E0092C11D00A2C4B
:105090000FD00B2C0DD00C2C0BD00D2C09D00E2CBE
:1050A00007D00F2C05D0102C03D0112C01D0122CBE
:1050B00000D104E040F2AD31FB48FBF720FB95B393
:1050C000B5F5807F2FD0B5F5007F2CD0B5F5407FAA
:1050D00029D0B5F5806F26D0B5F5A06F23D0B5F5F2
:1050E000C06F20D0B5F5E06F1DD0B5F5006F1AD0B8
:1050F000B5F5106F17D0B5F5206F14D0B5F5306F3A
:1051000011D0B5F5406F0ED0B5F5506F0BD0B5F599
:10511000606F08D0B5F5706F05D0B5F5805F02D02F
:10512000B5F5885F00D104E040F2AE31DE48FBF710
:10513000E6FA44EA0500A6F8480070BD70B50446DA
:105140000D461646D94884421DD0B4F1804F1AD07E
:10515000D748844217D0D748844214D0D6488442D6
:1051600011D0D64884420ED0D54884420BD0D548C1
:10517000844208D0D448844205D0D448844202D026
:10518000D348844200D104E040F2C731C648FBF75F
:10519000B6FA48F2FF00284008B905B104E04FF420
:1051A0007271C148FBF7ABFA0EB1012E00D104E0D9
:1051B00040F2C931BC48FBF7A2FA1EB1A0892843CE
:1051C000A08102E0A089A843A08170BD10B504466B
:1051D000B648844217D0B4F1804F14D0B44884420A
:1051E00011D0B44884420ED0B34884420BD0B548A5
:1051F000844208D0B748844205D0B748844202D0E0
:10520000B148844200D104E04FF47871A648FBF71E
:1052100076FA20894FF6F8710840208110BD70B5EC
:1052200004460D460026A148844217D0B4F1804FB1
:1052300014D09F48844211D09E4884420ED09E488C
:1052400084420BD09F48844208D0A248844205D0B3
:10525000A148844202D09C48844200D104E040F23C
:10526000D1419148FBF74BFA6DB1102D0BD0202D99
:1052700009D0302D07D0402D05D0502D03D0602D02
:1052800001D0702D00D104E040F2D2418648FBF7F6
:1052900036FA26894FF68F7006402E43268170BD60
:1052A00070B504460D468148844217D0B4F1804F52
:1052B00014D07F48844211D07E4884420ED07E486C
:1052C00084420BD07F48844208D08248844205D073
:1052D0008148844202D07C48844200D104E040F2FC
:1052E000F3317148FBF70BFA2DB1102D03D0202DAF
:1052F00001D0302D00D104E04FF47D716A48FBF7F6
:10530000FEF929462046FFF78AFF208940F0070072
:10531000208170BD2DE9F04104460D4616461F461A
:105320006248844217D0B4F1804F14D06048844260
:1053300011D0604884420ED05F4884420BD061484F
:10534000844208D06348844205D06348844202D036
:105350005D48844200D104E040F20F415248FBF71F
:10536000CEF9502D03D0602D01D0402D00D104E0A6
:105370004FF482614C48FBF7C2F90EB1022E00D106
:1053800004E040F211414848FBF7B9F90F2F00DC67
:1053900004E040F212414448FBF7B1F9602D06D118
:1053A0003B46012231462046FFF7CBF905E03B465C
:1053B000012231462046FFF764FA29462046FFF7CE
:1053C0002EFF208940F007002081BDE8F0812DE903
:1053D000F04104460D4616461F464FF0000833487C
:1053E00084420ED0B4F1804F0BD03148844208D0B3
:1053F0003048844205D03048844202D0314884424B
:1054000000D104E040F281412748FBF778F945B12B
:10541000B5F5805F05D0B5F5005F02D0B5F5405F0A
:1054200000D104E040F282411F48FBF768F9B6F56D
:10543000004F00D006B904E040F283411A48FBF760
:105440005EF90F2F00DC04E040F284411648FBF7C0
:1054500056F9B4F8088008F0FF084FF6FF7000EA2C
:1054600007203043284340EA0808A4F80880BDE834
:10547000F0812DE9F04104460D4617469846002676
:105480000A4884420ED0B4F1804F0BD008488442C1
:1054900008D00848844205D00748844202D0094811
:1054A00084421BD11FE00000F03E0008002C0140A8
:1054B0000004004000080040000C004000100040C4
:1054C000001400400034014000400140004401400D
:1054D00000480140004C0140001800404FF4876133
:1054E000FE48FBF70CF945B1B5F5805F05D0B5F581
:1054F000005F02D0B5F5405F00D104E040F23941D1
:10550000F648FBF7FCF8B7F5004F00D007B904E008
:1055100040F23A41F148FBF7F2F8B8F10F0F00DC26
:1055200004E040F23B41ED48FBF7E9F843463A46D8
:1055300029462046FFF74BFF26894FF6F8700640B4
:1055400046F007064FF68F70064046F0700626813B
:10555000BDE8F0812DE9F04104460D4616461F4690
:10556000DF4884420ED0B4F1804F0BD0DD48844236
:1055700008D0DD48844205D0DC48844202D0DC48B3
:10558000844200D104E040F26141D448FBF7B7F80F
:1055900045B1B5F5805F05D0B5F5005F02D0B5F532
:1055A000405F00D104E040F26241CC48FBF7A7F82D
:1055B000B6F5004F00D006B904E040F26341C74899
:1055C000FBF79DF80F2F00DC04E040F26441C34874
:1055D000FBF795F83B46324629462046FFF7F7FE93
:1055E000208940F480402081BDE8F08170B50446F8
:1055F0000E461546BA4884422FD0B4F1804F2CD0C5
:10560000B848844229D0B848844226D0B74884425A
:1056100023D0B848844220D0B74884421DD0B44833
:1056200084421AD0B548844217D0B548844214D079
:10563000B448844211D0B44884420ED0B348844266
:105640000BD0B348844208D0B248844205D0B24857
:10565000844202D0B148844200D104E040F29B4130
:105660009E48FBF74CF80DB1012D00D104E040F24B
:105670009C419A48FBF743F82685A58270BD70B51A
:1056800004460D460026964884420ED0B4F1804F61
:105690000BD09448844208D09348844205D0934864
:1056A000844202D09248844200D104E040F2B341E7
:1056B0008A48FBF724F83DB1102D05D0202D03D0EA
:1056C000402D01D0602D00D104E040F2B441834868
:1056D000FBF715F826884FF68F7006402E4326807C
:1056E00070BD2DE9F04704460D4616461F464FF0A3
:1056F0000008C146C2467A48844211D0B4F1804FB6
:105700000ED0784884420BD07748844208D077483E
:10571000844205D07648844202D07E48844200D13B
:1057200004E04FF49F616D48FAF7E9FF012D03D0C3
:10573000022D01D0032D00D104E040F2F941674869
:10574000FAF7DDFF0EB1022E00D104E040F2FA417B
:105750006248FAF7D4FF0FB1022F00D104E040F203
:10576000FB415E48FAF7CBFFB4F80880B4F8189014
:10577000B4F820A04FF6F87008EA000848EA0508D7
:105780004FF6FC4009EA000940F2011049EA00091D
:105790004FF6DD700AEA000A4FF6FF7000EA0710C4
:1057A000304340EA0A0AA4F80880A4F81890A4F844
:1057B00020A0BDE8F08770B504460D460026484895
:1057C000844229D0B4F1804F26D04648844223D069
:1057D0004548844220D0454884421DD044488442F4
:1057E0001AD04648844217D04548844214D04548D0
:1057F000844211D0444884420ED0444884420BD0A5
:105800004348844208D04348844205D042488442F9
:1058100002D04248844200D104E040F227512F4890
:10582000FAF76DFF502D01D0402D00D104E04FF468
:10583000A5612A48FAF763FF268B4FF68F70064062
:105840002E43268370BD70B504460D4600262448BD
:10585000844217D0B4F1804F14D02248844211D032
:10586000214884420ED0214884420BD020488442F3
:1058700008D02248844205D02348844202D02548DB
:10588000844200D104E040F23F511448FAF737FF58
:10589000502D01D0402D00D104E04FF4A8610F48F5
:1058A000FAF72DFF268B48F6FF7006404FF6FF7083
:1058B00000EA05200643268370BD70B504460D46F8
:1058C00000260748844231D0B4F1804F2ED00548DD
:1058D00084422BD00448844228D021E0F03E0008C6
:1058E000002C01400004004000080040000C004073
:1058F000003401400010004000140040004C014002
:10590000005001400054014000180040001C0040BD
:105910000020004000400140004401400048014098
:10592000FD48844202D0FD48844200D104E040F2A8
:105930005751FB48FAF7E3FE502D01D0402D00D11E
:1059400004E04FF4AB61F648FAF7D9FEA68B4FF6A8
:105950008F7006402E43A68370BD70B504460D4679
:105960000026F04884420ED0B4F1804F0BD0EE48B0
:10597000844208D0ED48844205D0E748844202D0F2
:10598000E648844200D104E040F26F51E448FAF75F
:10599000B6FE502D01D0402D00D104E04FF4AE6191
:1059A000DF48FAF7ACFEA68B48F6FF7006404FF6CC
:1059B000FF7000EA05200643A68370BD70B504465B
:1059C0000D46D84884422FD0B4F1804F2CD0D64811
:1059D000844229D0D548844226D0CF48844223D05F
:1059E000D348844220D0D34884421DD0CB4884423F
:1059F0001AD0D148844217D0D048844214D0D0481D
:105A0000844211D0CF4884420ED0CF4884420BD07C
:105A1000CE48844208D0CE48844205D0CD48844246
:105A200002D0CD48844200D104E040F28451BC4809
:105A3000FAF765FE0DB1012D00D104E040F2855169
:105A4000B748FAF75CFE25B1208840F0800020803E
:105A500004E020884FF67F710840208070BD70B54B
:105A600004460D46AF4884420BD0AC48844208D06F
:105A7000B748844205D0B748844202D0B648844231
:105A800000D104E040F29C51A548FAF738FE0DB170
:105A9000012D00D104E040F29D51A148FAF72FFEFC
:105AA00025B1A08840F00400A08004E0A0884FF653
:105AB000FB710840A08070BD70B504460D46994842
:105AC000844217D0B4F1804F14D09748844211D04B
:105AD000964884420ED0904884420BD08F4884422E
